:060000000A128A11122809
:10000800FE00030E83120313C1000408C2000A088D
:10001800C3007F08C4000A128A15982A0A128A1196
:10002800152883120313EC0183135B3084006C30B2
:100038000A128A11F4270A128A11A0308400DE30CD
:100048000A128A11F4270A128A1183179030840041
:10005800E0300A128A11F4270A128A11103084003B
:1000680042300A128A11F42783010A168A15FF29D9
:10007800831203130611F001F00A3A300A168A15A2
:10008800B5210A128A11F00100300A168A15B52125
:100098000A128A11F600760883120313A700F001EA
:1000A80000300A168A15B5210A128A11F600760858
:1000B80083120313A800F00100300A168A15B5212F
:1000C8000A128A11F600760883120313BB00F001A6
:1000D80000300A168A15B5210A128A11F600760828
:1000E80083120313BA00F00100300A168A15B521ED
:1000F8000A128A11F600760883120313BB00F00176
:1001080000300A168A15B5210A128A11F6007608F7
:1001180083120313BA00AC0106302C020318AC2872
:10012800F00100300A168A15B5210A128A11F60064
:10013800831203132C08D23E8400760883178000AC
:100148000130F6007608AC0706302C02031C942810
:10015800AD0106302D020318C928F00100300A1637
:100168008A15B5210A128A11F600831203132D0885
:10017800D83E84007608831780000130F6007608A0
:10018800AD0706302D02031CB128F00100300A1615
:100198008A15B5210A128A11F6007608831203130C
:1001A800BA00F00100300A168A15B5210A128A1120
:1001B800F600760883120313BB003A08F600F7012D
:1001C8007608A1007708A2002108F700F6013B088D
:1001D8007607A1000030031801307707A200742DBC
:1001E800F00100300A168A15B5210A128A11F001A9
:1001F80000300A168A15B5210A128A11F00100305A
:100208000A168A15B5210A128A11F600760883168D
:100218000317C000F00100300A168A15B5210A122A
:100228008A11F600760883160317C100F001003022
:100238000A168A15B5210A128A11F600760883165D
:100248000317C200F00100300A168A15B5210A12F8
:100258008A11F600760883160317C3008312031366
:10026800A301A40100302402033003192302031858
:100278005329F00100300A168A15B5210A128A118D
:10028800013083120313A3070318A40A0030A4073C
:1002980000302402033003192302031C3D29F00116
:1002A80000300A168A15B5210A128A11F600760856
:1002B80083160317C70083120313A501A601003094
:1002C800260202300319250203188029F0010030A4
:1002D8000A168A15B5210A128A11013083120313EE
:1002E800A5070318A60A0030A60700302602023028
:1002F80003192502031C6A29AE0104302E020318D3
:100308009D29F00100300A168A15B5210A128A11B2
:10031800F600831203132E08CA3E8400760883175A
:1003280080000130F6007608AE0704302E02031C68
:100338008529AF0104302F020318BA29F0010030D3
:100348000A168A15B5210A128A11F60083120313B8
:100358002F08CE3E84007608831780000130F6000F
:100368007608AF0704302F02031CA229B501043018
:1003780035020318852C3508CF3E84008313000806
:10038800F6003508CE3E8400831700087606031968
:10039800D3298F30F600760883160317C70001307B
:1003A800F600760883120313B507BB29F001003065
:1003B8000A168A15B5210A128A11083A031D812DD9
:1003C80083120313EC14831603174708F600760804
:1003D80083160313CC00F00100300A168A15B521E4
:1003E8000A128A11F00100300A168A15B5210A127C
:1003F8008A11F00100300A168A15B5210A128A11ED
:10040800F00100300A168A15B5210A128A11F60081
:10041800760883160313D900F00100300A168A15EE
:10042800B5210A128A11F600760883160313DA003A
:10043800F00100300A168A15B5210A128A11F60051
:10044800760883160313DB00F00100300A168A15BC
:10045800B5210A128A11F600760883160313DC0008
:10046800F00100300A168A15B5210A128A11F60021
:10047800760883160313DD00812D83120313E6012A
:10048800E7010030E5000030E4000030E300003010
:10049800E200F00100300A168A15B5210A128A1105
:1004A800F600760883160313B000F00100300A1630
:1004B8008A15B5210A128A11F600760883160313E5
:1004C800B100F00100300A168A15B5210A128A1106
:1004D800F600760883120313BA00F00100300A16FA
:1004E8008A15B5210A128A11F600760883120313B9
:1004F800BB00831603132E08831203133A06031D49
:10050800812D831603132F08831203133B06031D43
:10051800812DB601043036020318DF2AF0010030BD
:100528000A168A15B5210A128A11F60083120313D6
:100538003608AD3E84007608831780006208F6000E
:100548006308F7006408F8006508F900083003102C
:10055800F60DF70DF80DF90DFF3E031DAB2A7908CE
:10056800E5007808E4007708E3007608E20036083A
:10057800AD3E84000008F600F701F801F90176089D
:10058800E207770803110318013E031DE307780803
:1005980003110318013E031DE4077908031103182A
:1005A800013E031DE5070130F6007608B607043062
:1005B8003602031C922AB001043030020318FC2AC8
:1005C800F00100300A168A15B5210A128A11F600C0
:1005D800831203133008B23E840076088313800028
:1005E8000130F6007608B00704303002031CE42A14
:1005F800F00100300A168A15B5210A128A11F60090
:10060800760883160317B500F00100300A168A151C
:10061800B5210A128A11F600760883160317B60068
:1006280083120313A9010630290203182C2BF001A9
:1006380000300A168A15B5210A128A110130F6000F
:10064800760883120313A90706302902031C1B2B03
:10065800143083160317C1023508F600043003105E
:10066800F60CFF3E031D332B7608F700770883123C
:100678000313BB000310BB0D0310BB0D3B0883160F
:100688000317C102143083120313BB02A0013B08F5
:10069800200203185D2BF00100300A168A15B521D7
:1006A8000A128A110130F600760883120313A00794
:1006B8004B2BAA01831603174108831203132A023E
:1006C8000318C82BF00100300A168A15B5210A1242
:1006D8008A11F600831203132A08103E8400760854
:1006E800831780000130F6007608AA075E2B831670
:1006F8000317B61CDE2B83160313C201C20ADE2BB6
:10070800831203136C14B701043037020318DE2B6D
:100718003708B63E840083130008F6003708AD3E5C
:10072800840083170008760603199E2B6C10831625
:100738000313C20183126C1CA72B0230F600760843
:1007480083160313C2000130F60076088312B70738
:10075800882B83160317361CB32B0530C22B0330A6
:10076800F6007608C52B0430F6007608C62BC201C1
:10077800DE2B83160317361CDE2B0630F6007608B0
:1007880083160313C200DE2B831603134208003AB4
:1007980003197B2B0B3A0319842B2A3A0319AD2B27
:1007A8000D3A0319B72B1B3A0319BB2B753A0319DA
:1007B800BD2BDE2B83120313B80106303802031851
:1007C800F92B3808D83E840083170008F60038084B
:1007D800A03E84007608831380000130F600760876
:1007E800B80706303802031CE52BB901043039027A
:1007F8000318812D3908CA3E840083170008F600C3
:100808003908D33E84007608831380000130F6004F
:100818007608B907FA2BF00100300A168A15B521B7
:100828000A128A11F600760883120313DD00F0011C
:1008380000300A168A15B5210A128A11F6007608C0
:1008480083120313DE00F00100300A168A15B52161
:100858000A128A11F600760883120313DB00F001EE
:1008680000300A168A15B5210A128A11F600760890
:1008780083120313DC00F00100300A168A15B52133
:100888000A128A11F600760883120313DF00F001BA
:1008980000300A168A15B5210A128A11F83EF600A8
:1008A800760883120313E000F00100300A168A1557
:1008B800B5210A128A11F00100300A168A15B521ED
:1008C8000A128A1183120313AB0160082B02031862
:1008D800822CF00100300A168A15B5210A128A11F5
:1008E800F600831203132B08103E84007608831742
:1008F80080000130F6007608AB07692CE101E10AB7
:10090800812D831603174708013A0319DA29073A94
:100918000319412A173A03190F2C812D812DF00153
:1009280000300A168A15B5210A128A11F6007608CF
:1009380083120313BA00F00100300A168A15B52194
:100948000A128A11F600760883120313BB003A08CC
:10095800031D812D3B03031D812DF00100300A1674
:100968008A15B5210A128A11F60076088312031334
:10097800BA00F00100300A168A15B5210A128A1148
:10098800F600760883120313BB0008303A06031DED
:10099800812D3B08031D812DF00100300A168A15B0
:1009A800B5210A128A11F600760883120313BB00D8
:1009B800F00100300A168A15B5210A128A11F600CC
:1009C800760883120313BB00F00100300A168A155B
:1009D800B5210A128A11F600760883120313BB00A8
:1009E800F00100300A168A15B5210A128A11F6009C
:1009F800760883120313EA006A080319812DB101EE
:100A0800063031020318202DF00100300A168A152D
:100A1800B5210A128A11F600831203133108D83E51
:100A280084007608831780000130F6007608B10745
:100A380006303102031C082DB201043032020318BB
:100A48003D2DF00100300A168A15B5210A128A11C7
:100A5800F600831203133208CA3E8400760883170F
:100A680080000130F6007608B20704303202031C19
:100A7800252DB3010630330203185A2DF00100303A
:100A88000A168A15B5210A128A11F6008312031371
:100A98003308D23E84007608831780000130F600C0
:100AA8007608B30706303302031C422DB401043024
:100AB80034020318812DF00100300A168A15B52179
:100AC8000A128A11F600831203133408CE3E8400FA
:100AD8007608831780000130F6007608B4075B2D8E
:100AE8002208083A0319792D812D2108003A0319A3
:100AF800F428063A0319932C812D83120313061543
:100B08000630F600F60B862D00008312031306113B
:100B1800F001F00ABF300A168A15B5210A128A11A7
:100B2800F001F00A03300A168A15B5210A128A1153
:100B38008312031306150630F600F60BA12D0000EC
:100B4800831203130611F001F00A40300A168A15C1
:100B5800B5210A128A11F001F00A8312031327083B
:100B68000A168A15B5210A128A118312031306156B
:100B78000630F600F60BBE2D000083120313061193
:100B8800F001F00A41300A168A15B5210A128A11B5
:100B9800F001F00A8312031328080A168A15B521F2
:100BA8000A128A118312031306150630F600F60B93
:100BB800DB2D0000831203130611F001F00A4C30FC
:100BC8000A168A15B5210A128A11F001F00A831251
:100BD800031327080A168A15B5210A128A118312E7
:100BE800031306150630F600F60BF82D00008312E5
:100BF80003130611F001F00A4D300A168A15B521C3
:100C08000A128A11F001F00A8312031328080A163F
:100C18008A15B5210A128A118312031306150630A4
:100C2800F600F60B152E0000831203130611F001CF
:100C3800F00A9E300A168A15B5210A128A11F001A7
:100C4800F00A40300A168A15B521831203130615D7
:100C58000800003083120313AD000030AC000030F0
:100C6800AB000030AA00C430A0002008F000C33058
:100C78000A168A15BF200A128A11700883120313F4
:100C8800A1007108A200A301A4012108AA07220853
:100C980003110318013E031DAB07230803110318B2
:100CA800013E031DAC07240803110318013E031D70
:100CB800AD07C630A0002008F000C5300A168A1516
:100CC800BF200A128A11700883120313A100710849
:100CD800A200A301A4012108AA07220803110318EE
:100CE800013E031DAB07230803110318013E031D32
:100CF800AC07240803110318013E031DAD07C830D3
:100D0800A0002008F000C7300A168A15BF200A1272
:100D18008A11700883120313A1007108A200A301AD
:100D2800A4012108AA07220803110318013E031D84
:100D3800AB07230803110318013E031DAC07240861
:100D480003110318013E031DAD07CC30A000200895
:100D5800F000CB300A168A15BF200A128A117008D3
:100D680083120313A1007108A200A301A4012108A2
:100D7800AA07220803110318013E031DAB07230825
:100D880003110318013E031DAC07240803110318BF
:100D9800013E031DAD07D030A0002008F000CF3081
:100DA8000A168A15BF200A128A11700883120313C3
:100DB800A1007108A200A301A4012108AA07220822
:100DC80003110318013E031DAB0723080311031881
:100DD800013E031DAC07240803110318013E031D3F
:100DE800AD07D230A0002008F000D1300A168A15CD
:100DF800BF200A128A11700883120313A100710818
:100E0800A200A301A4012108AA07220803110318BC
:100E1800013E031DAB07230803110318013E031D00
:100E2800AC07240803110318013E031DAD07D43095
:100E3800A0002008F000D3300A168A15BF200A1235
:100E48008A11700883120313A1007108A200A3017C
:100E5800A4012108AA07220803110318013E031D53
:100E6800AB07230803110318013E031DAC07240830
:100E780003110318013E031DAD07D630A00020085A
:100E8800F000D5300A168A15BF200A128A11700898
:100E980083120313A1007108A200A301A401210871
:100EA800AA07220803110318013E031DAB072308F4
:100EB80003110318013E031DAC072408031103188E
:100EC800013E031DAD072D08031D782F01302C02AC
:100ED800031D762F00302B02031D762F00302A02C7
:100EE800031D762F031CBA2F2A08A0002B08A10087
:100EF8002C08A2002D08A30010300310A30CA20C8C
:100F0800A10CA00CFF3E031D812F2108A900200879
:100F1800A8002808A0002908A100A201A301FF3009
:100F28002A05A400FF302B05A50000302C05A600DB
:100F380000302D05A7002408A00725080318250F51
:100F4800A62FA72FA10726080318260FAC2FAD2F11
:100F5800A20727080318270AA3072308AD002208B9
:100F6800AC002108AB002008AA00672F2B08A900B5
:100F78002A08A800A809A9092908F8002808F700DC
:100F88000800831203130611F001F00ABC300A1698
:100F98008A15B5210A128A11F001F00A08300A16DA
:100FA8008A15B5210A128A11831203130615063011
:100FB800F600F60BDD2F0000831203130611F00173
:100FC800F00A1D300A168A15B5210A128A11F00195
:100FD80000300A168A15B521831203130615080076
:100FE80064008001840A0406031900340406F52FFE
:1010000008308A000408840A82070034013400345E
:1010100010340034003401340034103430343134AE
:101020003234333434343534363437343834393474
:101030004134423443344434453446340034253456
:0610400058343A3400347C
:1010480083160313A6011E30DE005E08A700E330F6
:10105800DE005E08A8008030DE005E08A9000A30C5
:10106800DE005E08AA00A430DE005E08AB00453052
:10107800DE005E08C300C401C501C601C701C8017E
:101088004030DE005E08C900CA018030DE005E081C
:10109800CB000630DE005E08CC000A30DE005E08B9
:1010A800CF00D001D00A6D30DE005E08D1001C30C0
:1010B800DE005E08D2001830DE005E0883120313DB
:1010C800DD00183083160313DE005E088312031355
:1010D800DE00183083160313DE005E088312031344
:1010E800DB00183083160313DE005E088312031337
:1010F800DC00E10183160313D701D8010930DE00B3
:101108005E08AE007830DE005E08AF00B201B301C1
:10111800B401B5015030DE005E08BA00BC011930D8
:10112800DE005E08BD00C001C101C20108008312D3
:101138000313A0000730F6007608E8000830F60030
:10114800760883160313AC000630F6007608AD0067
:10115800831203130611F001F00ABF300A168A152C
:10116800B5210A128A15F001F00A03300A168A1509
:10117800B5210A128A158312031306150630F600E4
:10118800F60BC4280000831203130611F001F00ABD
:1011980042300A168A15B5210A128A15F001F00A9A
:1011A80000300A168A15B5210A128A15831203130C
:1011B80006150630F600F60BDF280000831203132D
:1011C8000611F001F00A43300A168A15B5210A12F1
:1011D8008A15F001F00A1F300A168A15B5210A127D
:1011E8008A158312031306150630F600F60BFA2843
:1011F8000000831203130611F001F00A7A300A1670
:101208008A15B5210A128A15F001F00A8312031310
:1012180068080A168A15B5210A128A15831203135B
:101228002003031D2B29A10106302102031846299A
:10123800F001F00AFF300A168A15B5210A128A153C
:101248000130F600760883120313A1071829A201BA
:101258000630220203184629F001F00A2208A03EAF
:101268008400831300080A168A15B5210A128A1504
:101278000130F600760883120313A2070630220213
:10128800031C3029A3010630230203186129F00149
:10129800F00A2308A63E8400831300080A168A155C
:1012A800B5210A128A150130F60076088312031355
:1012B800A30706302302031C4B29A4010230240291
:1012C80003187C29F001F00A2408AC3E840083133B
:1012D80000080A168A15B5210A128A150130F60087
:1012E800760883120313A40702302402031C66291C
:1012F800F001F00A00300A168A15B5210A128A157B
:10130800F001F00A01300A168A15B5210A128A1569
:10131800F001F00A08300A168A15B5210A128A1552
:10132800F001F00A00300A168A15B5210A128A154A
:10133800F001F00A06300A168A15B5210A128A1534
:10134800F001F00A04300A168A15B5210A128A1526
:10135800F001F00A00300A168A15B5210A128A151A
:10136800F001F00A8312031320080A168A15B52122
:101378000A128A1583120313A501063025020318E1
:10138800DB29F001F00A2508A63E84008313000833
:101398000A168A15B5210A128A150130F600760850
:1013A80083120313A50706302502031CC529A601CD
:1013B800043026020318F629F001F00A2608CF3E69
:1013C8008400831300080A168A15B5210A128A15A3
:1013D8000130F600760883120313A60704302602AC
:1013E800031CE029A701063027020318112AF0017F
:1013F800F00A2708A03E8400831300080A168A15FD
:10140800B5210A128A150130F600760883120313F3
:10141800A70706302702031CFB29A801043028026D
:1014280003182C2AF001F00A2808D33E84008313FD
:1014380000080A168A15B5210A128A150130F60025
:10144800760883120313A80704302802031C162AFF
:1014580006150630F600F60B2F2A00008312031338
:101468000611F001F00A46300A168A15B5210A124B
:101478008A15F001F00A2A300A168A15B5210A12CF
:101488008A158312031306150630F600F60B4A2A4E
:101498000000831203130611F001F00A47300A1600
:1014A8008A15B5210A128A15F001F00A1F300A16AA
:1014B8008A15B5210A128A158312031306150630F8
:1014C800F600F60B652A0000831203130611F001DB
:1014D800F00ABC300A168A15B5210A128A15F001DD
:1014E800F00A08300A168A15B5210A128A158312DD
:1014F800031306150630F600F60B802A0000831247
:1015080003130611F001F00A9F300A168A15B52157
:101518000A128A15F001F00A08300A168A15B52150
:1015280083120313061508008C1C372E8C1086189E
:101538008D2D0611F001F00A1C300A168A15B52106
:101548000A128A15F00100300A168A15B5210A1206
:101558008A1583120313BD003D08CF000615053018
:1015680083120313BD00BD0BB72ABA2A83120313D3
:101578004F1FC42A00300A168A1581250A128A15B7
:1015880083120313CF1DCD2A0A128A11C5270A1206
:101598008A15831203134F1CD72A01300A168A159D
:1015A80081250A128A15831203136A03031D152B5A
:1015B800EA01D001063050020318F62A5008D83E36
:1015C800840083170008BD005008A03E84003D0831
:1015D800831380000130BD003D08D007063050025B
:1015E800031CE22AD1010430510203180F2B5108C1
:1015F800CA3E840083170008BD005108D33E84000A
:101608003D08831380000130BD003D08D107043038
:101618005102031CFB2A02300A128A159B200A1267
:101628008A1583120313EC1C502BD2010630520288
:101638000318322B5208D83E840083170008BD00D7
:101648005208A03E84003D08831380000130BD008D
:101658003D08D20706305202031C1E2BD30104306A
:10166800530203184B2B5308CA3E84008317000803
:10167800BD005308D33E84003D0883138000013029
:10168800BD003D08D30704305302031C372B0A164C
:101698008A156B260A128A15831203136108031927
:1016A800772DE10155300A168A1556200A128A1537
:1016B80083120313C7010630470203187E2B47081D
:1016C800D83E840083170008BD00BE013D08F8001D
:1016D8003E08F9001A300A168A1522240A128A15B9
:1016E800013083120313BD003D08C70706304702C7
:1016F800031C632BC8010430480203189E2B4808BA
:10170800CA3E840083170008BD00BE013D08F800EA
:101718003E08F9001A300A168A1522240A128A1578
:10172800013083120313BD003D08C8070430480286
:10173800031C832BC501600845020318B42B450818
:10174800103E8400831700080A168A1556200A12CC
:101758008A15013083120313BD003D08C5079F2B6E
:101768000A300A168A1556200A128A15772D123061
:1017780083120313BD003D0883160313BB00013019
:1017880083120313E207003003180130E307003027
:1017980003180130E407003003180130E507003072
:1017A8000A168A1104200A128A150B304D2D2C2D89
:1017B800213083120313BD003D0883160313C200B2
:1017C800103083120313BD003D0883160313BB00BA
:1017D80083160317410883120313BD00BE01BF011E
:1017E800C0013D08E2073E0803110318013E031D2E
:1017F800E3073F0803110318013E031DE4074008EF
:1018080003110318013E031DE50700300A168A116B
:1018180004200A128A1554300A168A1556200A120C
:101828008A1583120313C901063049020318372C9D
:101838004908D83E840083170008BD00BE013D0852
:10184800F8003E08F9001A300A168A1522240A12EE
:101858008A15013083120313BD003D08C9070630FD
:101868004902031C1C2CCA0104304A020318572CD5
:101878004A08CA3E840083170008BD00BE013D081F
:10188800F8003E08F9001A300A168A1522240A12AE
:101898008A15013083120313BD003D08CA070430BE
:1018A8004A02031C3C2CC601831603174108831205
:1018B800031346020318712C4608103E8400831750
:1018C80000080A168A1556200A128A150130831252
:1018D8000313BD003D08C607582C0A300A168A159E
:1018E80056200A128A155430831203171006031D56
:1018F8008D2D83120313D401063054020318982C3B
:101908005408D83E840083170008BD005408A03E40
:1019180084003D08831380000130BD003D08D407D2
:1019280006305402031C842CD501043055020318D8
:10193800B12C5508CA3E840083170008BD0055081D
:10194800D33E84003D08831380000130BD003D086C
:10195800D50704305502031C9D2C9F144130831277
:101968000313BD00BD0BB62CB92C831203139F18AB
:10197800B92C831603131E0883120313BD003D08F8
:10198800CE000330BD003D08F0004E080A168A1547
:101998009E200A128A1583120313BE003E08CE0049
:1019A8000A30F0000030F1004E08BD00BE013D08CD
:1019B800F2003E08F3000A168A154E220A128A150A
:1019C800700883120313BF003F08831203179000A7
:1019D8000A3083120313BD003D08F0008312031779
:1019E80010080A168A155E200A128A158312031334
:1019F800BE003E08CE024E08BD003D088312031704
:101A08009100303083120313BD003D088312031781
:101A18009007303083120313BD003D08831203176B
:101A28009107103083120313BD003D08831603137A
:101A3800BB002C3083120313BD003D08831603132B
:101A4800C20002300A168A1104200A128A158D2D46
:101A580021304D2D113083120313BD003D0883162C
:101A68000313BB00013083120313E207003003188D
:101A78000130E307003003180130E4070030031891
:101A88000130E50700300A168A1104200A128A1567
:101A9800373083120313BD003D0883160313C200B9
:101AA8008D2D103083120313BD003D0883160313D8
:101AB800BB00013083120313E20700300318013022
:101AC800E307003003180130E40700300318013041
:101AD800E50700300A168A1104200A128A158316AF
:101AE8000313C2018D2D831603134208013A03190B
:101AF800BB2B033A0319DB2B013A0319DC2B073AFA
:101B080003192C2D013A03192E2D033A0319552DCB
:101B18008D2D4E30831203136E02203003196D028F
:101B280003189D2D0130ED070318EE0A0030EE076B
:101B3800D42DED01EE01071DA32D0711A42D0715C6
:101B4800CB0106304B020318B62D4B08A03E84008B
:101B5800831380010130BD003D08CB0706304B02DE
:101B6800031CA92DD601043056020318CE2D5608A1
:101B7800CF3E840083130008BD005608D33E84007E
:101B88003D0880000130BD003D08D60704305602EC
:101B9800031CBB2D01300A128A159B200A128A15D4
:101BA800FD30831203136702E83003196602031835
:101BB800E42D0130E6070318E70A0030E707002E96
:101BC800E601E7012130831603134206031DFC2DAD
:101BD800BB01BB0A00300A168A1104200A128A15B2
:101BE800423083120313BD003D0883160313C2005D
:101BF800423042060319C20183126F1C372EF001CE
:101C0800F10100300A168A15E1200A128A150A3AEB
:101C1800031D2F2E83120313D70104305702031814
:101C28002F2EF001F1015708013E0A168A15E1200E
:101C38000A128A1583120313BD005708CF3E840089
:101C48003D08831380000130BD003D08D7070430EC
:101C58005702031C152E0A168A111E240A128A1509
:101C6800831203136F108C1EF52FDA018C1E3A2E87
:101C78009818402E0130412E0030BD001819462E0C
:101C88000130472E00303D0500380319582E1A0838
:101C9800BD006908903E84003D088317800001302C
:101CA800BD003D08E9076B2E1A08BD003D08D900A4
:101CB8001A08BD003D08D9001812413083120313D9
:101CC800BD00BD0B652E682E831203131816690814
:101CD800FF3E903E84000A30831700060319E22F66
:101CE800F52F83120313DA01D801043058020318C0
:101CF800CD2ED9010130BD003D08DA075908BD00D5
:101D08003D08F0000A300A168A155E200A128A1564
:101D180083120313BE003E08D9005A08903E84007F
:101D280083170008D03EBD003D08D9075A08013E78
:101D3800903E84002E3000060319AA2E5A08013E50
:101D4800903E84000A300006031D7E2E0130BD003F
:101D58003D08DA075908BD005808CF3E84003D0801
:101D6800831380005908BD003D08F000F101F10A15
:101D78005808013E0A168A15E1200A128A15013010
:101D880083120313BD003D08D80704305802031C12
:101D98007D2E0A30BD003D08F000F101F10A003047
:101DA8000A168A15E1200A128A15203083120313B5
:101DB800ED004E30EE00F22F83120313DA01ED012D
:101DC800EE01CC0104304C020318F22FD901013086
:101DD800BD003D08DA075908BD003D08F0000A308B
:101DE8000A168A155E200A128A1583120313BE008A
:101DF8003E08D9005A08903E840083170008D03E58
:101E0800BD003D08D9075A08013E903E84002E3097
:101E180000060319172F5A08013E903E84000A3025
:101E28000006031DEB2E0130BD003D08DA075908F6
:101E3800BD004C08D33E84003D0883138000013068
:101E4800BD003D08CC07E62E83120313DA01ED012D
:101E5800EE01CD0106304D020318F22FD9010130F1
:101E6800BD003D08DA07D90EF030D9055A08903E72
:101E780084003C30831700020318482F5A08903E0C
:101E880084000008D03E4D2F5A08903E8400000878
:101E9800C93EBD003D08D9075A08013E903E84005E
:101EA8003A3000060319602F5A08013E903E84001C
:101EB8000A300006031D332F0130BD003D08DA0744
:101EC8005908BD004D08A03E84003D0883138000DA
:101ED8000130BD003D08CD072E2F103083120313AB
:101EE800BD003D0883160313BB002C308312031377
:101EF800BD003D0883160313C20083120313DA01E1
:101F08005A08023E903E840083170008BD005A0814
:101F1800103E84003D0880000130BD003D08DA070E
:101F28005A08023E903E84000A300006031D842FA2
:101F38006908FD3E0A168A1104200A128A15F22F32
:101F4800093083120313BD003D08DD007830BD0061
:101F58003D08DE000930BD003D08DB007830BD00DB
:101F68003D08DC00DA015A08023E903E84008317DF
:101F78000008BD005A08103E84003D08800001306A
:101F8800BD003D08DA075A08023E903E84000A3038
:101F98000006031DB72F6908FD3E0A168A15D124CD
:101FA8000A128A15F22F831603171108543A0319D7
:101FB800712F013A0319A42FF22FF22F831603175A
:101FC8001008493A0319752E1A3A0319D72F3A3AC5
:101FD8000319E02E043A0319282FF22F8312031352
:101FE800E9014408FF0043088A0042088400410EC2
:081FF8008300FE0E7E0E0900BD
:1020080083120313B6001430FA007A08B6073608AC
:10201800143EFA007A0883160313C6000630FA0045
:102028007A08CC000A128A112D260A168A11780815
:1020380083120313BB007708BA003A08FA007A083B
:1020480083160313CE00831203133B08FA007A08A1
:1020580083160313CD00831203136508B4006408C4
:10206800B3006308B2006208B100B7010430370258
:10207800031869283108FA003703FF3A033EB63ED1
:1020880084007A08831380003108FA003208FB00C4
:102098003308FC003408FD0008300310FD0CFC0C6C
:1020A800FB0CFA0CFF3E031D51287D08B4007C0888
:1020B800B3007B08B2007A08B1000130FA007A0850
:1020C800B70704303702031C3E2836080A168A115F
:1020D8006D210A168A11780883120313BB0077084A
:1020E800BA003A08FA007A0883160313BF0083126D
:1020F80003133B08FA007A0883160313BE0008305E
:10210800FA007A08AC00AD0146080E3EFA007A08DB
:1021180083120313B0000A168A15A7220A168A1119
:102128000A168A156D210A168A110A168A157F233E
:102138000A168A11F001F00A831603132E080A16EC
:102148008A15B5210A168A11F001F00A83160313BD
:102158002F080A168A15B5210A168A11F001F00A05
:102168008316031330080A168A15B5210A168A1130
:10217800F001F00A8316031331080A168A15B521EF
:102188000A168A1183120313B8010430380203189F
:10219800E328F001F00A3808B23E840083130008EF
:1021A8000A168A15B5210A168A110130FA007A082A
:1021B80083120313B80704303802031CCD28B90171
:1021C800043039020318FE28F001F00A3908B63E37
:1021D8008400831300080A168A15B5210A168A1185
:1021E8000130FA007A0883120313B9070430390260
:1021F800031CE828F001F00A831603133A080A16AC
:102208008A15B5210A168A11F001F00A83160313FC
:102218003B080A168A15B5210A168A11F001F00A38
:10222800831603133C080A168A15B5210A168A1163
:10223800F001F00A831603133D080A168A15B52122
:102248000A168A11F001F00A831603133E080A16CB
:102258008A15B5210A168A11F001F00A83160313AC
:102268003F080A168A15B5210A168A11F001F00AE4
:102278008316031340080A168A15B5210A168A110F
:10228800F001F00A8316031341080A168A15B521CE
:102298000A168A1183120313B5013608350203188A
:1022A8006829F001F00A3508103E840083170008F9
:1022B8000A168A15B5210A168A110130FA007A0819
:1022C80083120313B507512930080A168A151023FB
:1022D800080083120313A9000030AF000030AE00DD
:1022E8000030AD000030AC00D030A0002008F00075
:1022F800CF300A168A15BF200A168A117008831271
:102308000313A1007108A200A301A4012108AC07CE
:10231800220803110318013E031DAD07230803110A
:102328000318013E031DAE07240803110318013EDC
:10233800031DAF07D230A0002008F000D1300A16E4
:102348008A15BF200A168A11700883120313A10088
:102358007108A200A301A4012108AC0722080311F7
:102368000318013E031DAD07230803110318013E9E
:10237800031DAE07240803110318013E031DAF0710
:10238800D430A0002008F000D3300A168A15BF20E8
:102398000A168A11700883120313A1007108A2009B
:1023A800A301A4012108AC07220803110318013E68
:1023B800031DAD07230803110318013E031DAE07D3
:1023C800240803110318013E031DAF07D630A000EF
:1023D8002008F000D5300A168A15BF200A168A117F
:1023E800700883120313A1007108A200A301A401BD
:1023F8002108AC07220803110318013E031DAD078D
:10240800230803110318013E031DAE072408031116
:102418000318013E031DAF07831603134C088312EC
:102428000313A000A101A201A3012008AC07210801
:1024380003110318013E031DAD07220803110318F9
:10244800013E031DAE07230803110318013E031DB7
:10245800AF072908A000A101A201A3012008AC0729
:10246800210803110318013E031DAD0722080311BB
:102478000318013E031DAE07230803110318013E8C
:10248800031DAF07AF30A0002008F000AE300A16D9
:102498008A15BF200A168A11700883120313A10037
:1024A8007108A200A301A4012108AC0722080311A6
:1024B8000318013E031DAD07230803110318013E4D
:1024C800031DAE07240803110318013E031DAF07BF
:1024D800B130A0002008F000B0300A168A15BF20DD
:1024E8000A168A11700883120313A1007108A2004A
:1024F800A301A4012108AC07220803110318013E17
:10250800031DAD07230803110318013E031DAE0781
:10251800240803110318013E031DAF07B330A000C0
:102528002008F000B2300A168A15BF200A168A1150
:10253800700883120313A1007108A200A301A4016B
:102548002108AC07220803110318013E031DAD073B
:10255800230803110318013E031DAE0724080311C5
:102568000318013E031DAF07B530A0002008F00096
:10257800B4300A168A15BF200A168A117008831209
:102588000313A1007108A200A301A4012108AC074C
:10259800220803110318013E031DAD072308031188
:1025A8000318013E031DAE07240803110318013E5A
:1025B800031DAF07B730A0002008F000B6300A1698
:1025C8008A15BF200A168A11700883120313A10006
:1025D8007108A200A301A4012108AC072208031175
:1025E8000318013E031DAD07230803110318013E1C
:1025F800031DAE07240803110318013E031DAF078E
:10260800B930A0002008F000B8300A168A15BF209B
:102618000A168A11700883120313A1007108A20018
:10262800A301A4012108AC07220803110318013EE5
:10263800031DAD07230803110318013E031DAE0750
:10264800240803110318013E031DAF07BB30A00087
:102658002008F000BA300A168A15BF200A168A1117
:10266800700883120313A1007108A200A301A4013A
:102678002108AC07220803110318013E031DAD070A
:10268800230803110318013E031DAE072408031194
:102698000318013E031DAF07831603133D08831279
:1026A8000313A000A101A201A3012008AC0721087F
:1026B80003110318013E031DAD0722080311031877
:1026C800013E031DAE07230803110318013E031D35
:1026D800AF071430A902291C7A2B2908103E840060
:1026E800831780010130A0002008A9070310A90C56
:1026F800A801290828020318022C2808A00020078E
:10270800103E840083170008A100A2012108AA0036
:102718002208AB002A08A100A0012008AA0021086D
:10272800AB000314280D103E84000008A000A1018E
:102738002008AA070318AB0A2108AB072A08A0003B
:102748002B08A100A201A3012008AC07210803114E
:102758000318013E031DAD07220803110318013EAB
:10276800031DAE07230803110318013E031DAF071D
:102778000130A0002008A8077D2B2C08A0002D08F8
:10278800A1002E08A2002F08A30010300310A30CEC
:10279800A20CA10CA00CFF3E031DCA2B2108AB0004
:1027A8002008AA002A08A0002B08A100A201A30162
:1027B800FF302C05A400FF302D05A50000302E05A4
:1027C800A60000302F05A7002408A0072508031835
:1027D800250FEF2BF02BA10726080318260FF52B42
:1027E800F62BA20727080318270AA3072308AF0018
:1027F8002208AE002108AD002008AC002F08031DF8
:10280800C12B01302E02031D112C00302D02031D97
:10281800112C00302C02031D112C0318C12B2D087C
:10282800AB002C08AA00AA09AB092B08F8002A0853
:10283800F7000800F9010230F8000430F700BA3058
:10284800F600F60B252CF70B252CF80B252C000091
:102858008312031306140230F8000430F700BA306C
:10286800F600F60B352CF70B352CF80B352C000041
:10287800831203130611F001F00A1D300A168A1597
:10288800B5210A168A11F00100300A168A15B521F9
:102898000A168A110139F6007608F9008312031323
:1028A80006154230F600F60B572C0000790803197C
:1028B8003C2C831203130611F001F00A5F300A164C
:1028C8008A15B5210A168A11F001F00A00300A1695
:1028D8008A15B5210A168A118312031306150630C4
:1028E800F600F60B752C0000831203130611F00195
:1028F800F00A5E300A168A15B5210A168A11F00107
:10290800F00A80300A168A15B5210A168A11831230
:10291800031306150630F600F60B902C0000831200
:1029280003130611F001F00A5B300A168A15B52167
:102938000A168A11F001F00ACB300A168A15B52159
:102948000A168A118312031306150630F600F60BD1
:10295800AB2C0000831203130611F001F00A483073
:102968000A168A15B5210A168A11F001F00A0030F4
:102978000A168A15B5210A168A1183120313061539
:102988000630F600F60BC62C00008312031306115E
:10299800F001F00A49300A168A15B5210A168A117B
:1029A800F001F00A00300A168A15B5210A168A11B4
:1029B8008312031306150630F600F60BE12C00000F
:1029C800831203130611F001F00A4A300A168A1519
:1029D800B5210A168A11F001F00AFF300A168A1585
:1029E800B5210A168A118312031306150630F6005C
:1029F800F60BFC2C0000831203130611F001F00AF9
:102A08004B300A168A15B5210A168A11F001F00A08
:102A18001E300A168A15B5210A168A118312031365
:102A280006150630F600F60B172D00008312031367
:102A38000611F001F00A40300A168A15B5210A1667
:102A48008A11F001F00A00300A168A15B5210A1613
:102A58008A118312031306150630F600F60B322D81
:102A68000000831203130611F001F00A41300A1620
:102A78008A15B5210A168A11F001F00A00300A16E3
:102A88008A15B5210A168A11831203130615063012
:102A9800F600F60B4D2D0000831203130611F0010A
:102AA800F00A44300A168A15B5210A168A11F0016F
:102AB800F00A00300A168A15B5210A168A118312FF
:102AC800031306150630F600F60B682D0000831276
:102AD80003130611F001F00A45300A168A15B521CC
:102AE8000A168A11F001F00A1F300A168A15B52154
:102AF8000A168A118312031306150630F600F60B20
:102B0800832D0000831203130611F001F00A9F3091
:102B18000A168A15B5210A168A11F001F00A013041
:102B28000A168A15B5210A168A1183120313061587
:102B38000630F600F60B9E2D0000831203130611D3
:102B4800F001F00A58300A168A15B5210A168A11BA
:102B5800F001F00AA0300A168A15B5210A168A1162
:102B68008312031306150630F600F60BB92D000084
:102B7800831203130611F001F00A9F300A168A1512
:102B8800B5210A168A11F001F00A02300A168A15D0
:102B9800B5210A168A118312031306150630F600AA
:102BA800F60BD42D0000831203130611F001F00A6E
:102BB80041300A168A15B5210A168A11F001F00A61
:102BC800831603132B080A168A15B5210A168A11CB
:102BD8008312031306150630F600F60BF12D0000DC
:102BE800831203130611F001F00A40300A168A1501
:102BF800B5210A168A11F001F00A831603132A0870
:102C08000A168A15B5210A168A11831203130615A6
:102C18000630F600F60B0E2E000083120313061181
:102C2800F001F00A43300A168A15B5210A168A11EE
:102C3800F001F00A8316031329080A168A15B5212C
:102C48000A168A118312031306150630F600F60BCE
:102C58002B2E0000831203130611F001F00A4230F4
:102C68000A168A15B5210A168A11F001F00A831688
:102C7800031328080A168A15B5210A168A11831221
:102C8800031306150630F600F60B482E00008312D3
:102C980003130611F001F00A45300A168A15B5210A
:102CA8000A168A11F001F00A8316031327080A1678
:102CB8008A15B5210A168A118312031306150630E0
:102CC800F600F60B652E0000831203130611F001BF
:102CD800F00A44300A168A15B5210A168A11F0013D
:102CE800F00A8316031326080A168A15B5210A1650
:102CF8008A118312031306150630F600F60B822E8E
:102D08000000831203130611F001F00ABF300A16FF
:102D18008A15B5210A168A11F001F00A01300A163F
:102D28008A15B5210A168A1183120313061506306F
:102D3800F600F60B9D2E0000831203130611F00116
:102D4800F00A80300A168A15B5210A168A11F00190
:102D5800F00A0D300A168A15B5210A168A1183124F
:102D6800031306150630F600F60BB82E0000831282
:102D780003130611F001F00A42300A168A15B5212C
:102D88000A168A11F001F00AB1300A168A15B5211F
:102D98000A168A118312031306150630F600F60B7D
:102DA800D32E0000831203130611F001F00A4330FA
:102DB8000A168A15B5210A168A11F001F00A403060
:102DC8000A168A15B5210A168A11831203130615E5
:102DD8000630F600F60BEE2E0000831203130611E0
:102DE800F001F00A4A300A168A15B5210A168A1126
:102DF800F001F00ADC300A168A15B5210A168A1184
:102E08008312031306150630F600F60B092F00008F
:102E1800831203130611F001F00A4B300A168A15C3
:102E2800B5210A168A11F001F00A05300A168A152A
:102E3800B5210A168A118312031306150630F60007
:102E4800F60B242F0000831203130611F001F00A79
:102E580046300A168A15B5210A168A11F001F00AB9
:102E680012300A168A15B5210A168A11831203131D
:102E780006150630F600F60B3F2F000083120313E9
:102E88000611F001F00A47300A168A15B5210A160C
:102E98008A11F001F00A0C300A168A15B5210A16B3
:102EA8008A118312031306150630F600F60B5A2F03
:102EB8000000831203130611F001F00A54300A16B9
:102EC8008A15B5210A168A11F001F00A00300A168F
:102ED8008A15B5210A168A118312031306150630BE
:102EE800F600F60B752F0000831203130611F0018C
:102EF800F00A56300A168A15B5210A168A11F00109
:102F0800F00A00300A168A15B5210A168A118312AA
:102F1800031306150630F600F60B902F00008312F7
:102F280003130611F001F00A57300A168A15B52165
:102F38000A168A11F001F00A01300A168A15B5211D
:102F48000A168A118312031306150630F600F60BCB
:102F5800AB2F0000831203130611F001F00ABF30F3
:102F68000A168A15B5210A168A11F001F00A0230EC
:102F78000A168A15B5210A168A1183120313061533
:102F88000630F600F60BC62F000083120313061155
:102F9800F001F00A9F300A168A15B5210A168A111F
:102FA800F001F00A01300A168A15B5210A168A11AD
:102FB8008312031306150630F600F60BE12F000006
:102FC800831203130611F001F00A9F300A168A15BE
:102FD800B5210A168A11F001F00A04300A168A157A
:102FE800B5210A168A118312031306154230F6001A
:082FF800F60BFC2F000008009D
:1030AC00F000831203130C1E5728700899000800B7
:1030BC00F300F201731C66287008F1007108F20726
:1030CC000310F00D0310F30C7308031D6028720835
:1030DC00080083160313941314178312031314128A
:1030EC008316031306118711071687128312031315
:1030FC000615831603138C11831203139416080000
:10310C00831603138C160C121815831603178711CC
:10311C00831603139A013330990018128312031388
:10312C0098178316031398168312031318160800A6
:10313C00F200F40170080319BD28F301F30AF01B27
:10314C00AE280310F00D0130F1007108F307A5282B
:10315C000310F40D70087202031CB8287008F202F8
:10316C0074140310F00C0130F302031DAE28740824
:10317C000800F6007608840083130008F200F301BF
:10318C007208F4007308F5007408F300F201720879
:10319C00F4007308F500700884000008F200F301D5
:1031AC007208F4070318F50A7308F5077508F1009F
:1031BC007408F0000800F20071080319FB2872086B
:1031CC00831203178D0070088C00831603178C1361
:1031DC000C1555308D00AA308D008C1483120313FE
:1031EC000D1EF4280D12003008007208831203170C
:1031FC008D00831603178C130C14831203170C0801
:10320C00080083160313E200E301831203138C10EE
:10321C00831603135F0892005E08E000023003106F
:10322C00E00DFF3E031D15290310600DF83E7839A3
:10323C00E1006108E3000430E0006008E307620885
:10324C00E0006008E30763088312031392008316FF
:10325C0003138C140800F501F601700871040319AE
:10326C006829F701F70AF11B472901300310F00D0B
:10327C00F10DFF3E031D3C290130F4007408F707E3
:10328C00392901300310F50DF60DFF3E031D4829B9
:10329C0071087302031D542970087202031C5D2906
:1032AC007008F2027108031CF303F3027514013069
:1032BC000310F10CF00CFF3E031D5E290130F702E8
:1032CC00031D47297608F1007508F0000800F70186
:1032DC000630770203188629F001F00A7708A03E21
:1032EC008400831300080A168A15B5210A168A155C
:1032FC000130F6007608F70706307702031C7229B6
:10330C00F8010630780203189F29F001F00A7808BA
:10331C00A63E8400831300080A168A15B5210A16E6
:10332C008A150130F6007608F80706307802031C7F
:10333C008B29F9010230790203180800F001F00A18
:10334C007908AC3E8400831300080A168A15B5214F
:10335C000A168A150130F6007608F907A029F5003F
:10336C00F52983120313941FC92994139412033063
:10337C00F2009730F100F10BC129F20BC129C629DB
:10338C008312031394167508930083160313141CED
:10339C00CB29831203131308F1007108F400FD29E3
:1033AC0083120313941FE829941394120330F20030
:1033BC009730F100F10BE029F20BE029E52983129B
:1033CC00031394167508930083160313141CEA292F
:1033DC00831203131308F1007108F300FD29700820
:1033EC00003A0319B729013A0319D629FD297408A3
:1033FC0008007130831603138F00C0308B008316C6
:10340C0003178901831603138514023083160317DF
:10341C008800831203131F083F3980389F001F0850
:10342C00C33904389F001F14831603139F17071109
:10343C008614061083120313071506106F14EF146D
:10344C00EC11EC100A168A1586200A168A150A1633
:10345C008A156F200A168A150A128A1524200A1654
:10346C008A15983083120313ED003A30EE000230C7
:10347C0083160313E4006408DE007D30E500650864
:10348C00DF0002300A168A1507210A168A154D2A02
:10349C00F601F11F582AF009F109F00A0319F10A93
:1034AC00F601F60AF31F632AF209F309F20A03196B
:1034BC00F30A0130F4007408F606F701F8017008FD
:1034CC00710403199A2AF501F50AF11B792A0130C6
:1034DC000310F00DF10DFF3E031D6E2A0130F400B8
:1034EC007408F5076B2A01300310F70DF80DFF3E39
:1034FC00031D7A2A71087302031D862A7008720252
:10350C00031C8F2A7008F2027108031CF303F302E8
:10351C00771401300310F10CF00CFF3E031D902AC0
:10352C000130F502031D792A76080319A22AF7093E
:10353C00F809F70A0319F80A7808F1007708F0007F
:10354C0008000730F600760883120313E800061112
:10355C00F001F00ABF300A168A15B5210A168A1531
:10356C00F001F00A03300A168A15B5210A168A15DD
:10357C008312031306150630F600F60BC32A00005F
:10358C00831203130611F001F00A42300A168A1551
:10359C00B5210A168A15F001F00A00300A168A15B0
:1035AC00B5210A168A158312031306150630F60088
:1035BC00F60BDE2A0000831203130611F001F00A49
:1035CC0043300A168A15B5210A168A15F001F00A3D
:1035DC001F300A168A15B5210A168A158312031391
:1035EC0006150630F600F60BF92A000083120313B9
:1035FC000611F001F00A7A300A168A15B5210A165E
:10360C008A15F001F00A8312031368080A168A154A
:10361C00B5210800F7008312031306150630F600D7
:10362C00F60B162B0000831203130611F001F00A9F
:10363C0046300A168A15B5210A168A15F001F00AC9
:10364C0077080A168A15B5210A168A1583120313F0
:10365C0006150630F600F60B312B0000831203130F
:10366C000611F001F00A47300A168A15B5210A1620
:10367C008A15F001F00A1F300A168A15B5210A16B0
:10368C008A158312031306150630F600F60B4C2B25
:10369C000000831203130611F001F00ABC300A1665
:1036AC008A15B5210A168A15F001F00A08300A1697
:1036BC008A15B5210A168A158312031306150630CE
:1036CC00F600F60B672B0000831203130611F001B2
:1036DC00F00A9F300A168A15B5210A168A15F001D0
:1036EC00F00A08300A168A15B52183120313061541
:1036FC000800F001F00A8316031343080A168A1512
:10370C00B5210A168A15F001F00A83160313440832
:10371C000A168A15B5210A168A15F001F00A8316C5
:10372C00031345080A168A15B5210A168A15F001E5
:10373C00F00A8316031346080A168A15B5210A16D1
:10374C008A15F001F00A8316031347080A168A1526
:10375C00B5210A168A15F001F00A831603134808DE
:10376C000A168A15B5210A168A15F001F00A0030DE
:10377C000A168A15B5210A168A15F001F00A0030CE
:10378C000A168A15B5210A168A15F001F00A831655
:10379C0003134B080A168A15B5210A168A15F0016F
:1037AC00F00A831603134C080A168A15B5210A165B
:1037BC008A15F001F00A831603134D080A168A15B0
:1037CC00B5210A168A15F001F00A831603134E0868
:1037DC000A168A15B5210A168A15F70104307702E4
:1037EC0003180C2CF001F00A7708CF3E84008313E9
:1037FC0000080A168A15B5210A168A150130F6003A
:10380C007608F70704307702031CF82BF801043014
:10381C00780203180800F001F00A7808D33E8400FF
:10382C00831300080A168A15B5210A168A15013069
:10383C00F6007608F8070D2C83120313A6007830D7
:10384C00FA007A08A200013083120313A607FF3096
:10385C00260784000A128A1500200A168A15FA0017
:10386C007A08A70027080319080025302706031932
:10387C00462C27080A168A1556200A168A15292C52
:10388C0083120313A0010130A607FF302607840022
:10389C000A128A1500200A168A15A700003A031985
:1038AC00D02C583A03195E2C203A03195E2C292C83
:1038BC00220884000008A300840A0008A400023037
:1038CC00FA007A08A207A701A70A043027060319F1
:1038DC00902C2708FA007A07013E84000A128A15F8
:1038EC0000200A168A15FB000A128A1500200A16F7
:1038FC008A15FC007C082402031D862C7B082302FD
:10390C00031C902C0130FA007A08A7070430270614
:10391C00031D6F2C2708FA007A08A500FF30FA0067
:10392C007A0883120313A507250A0319292C2508E5
:10393C00FA007A07013E84000A128A1500200A1642
:10394C008A15F0000A128A1500200A168A15F10051
:10395C002408F3002308F2000A168A1531210A16EE
:10396C008A1570080F39FB007B0883120313A10022
:10397C002108093E84000A128A1500200A168A15AD
:10398C00FA007A08A70027080A168A1556200A1684
:10399C008A15942C080083120313B1003108083ED9
:1039AC00FA007A08E0006008143EFA007A088316E0
:1039BC000313C6001130FA007A08CC000A128A11DF
:1039CC002D260A168A15780883120313B00077087F
:1039DC00AF002F08FA007A0883160313CE00831267
:1039EC0003133008FA007A0883160313CD0008304D
:1039FC00FA007A08AC00AD0146080E3EFA007A08CF
:103A0C0083120313AE000A168A15A7220A168A150A
:103A1C000A168A156D210A168A150A168A157F232D
:103A2C000A168A15F001F00A831203135B080A16B2
:103A3C008A15B5210A168A15F001F00A83120313B0
:103A4C005C080A168A15B5210A168A15F001F00AC7
:103A5C00831203135D080A168A15B5210A168A15F6
:103A6C00F001F00A831203135E080A168A15B521B9
:103A7C000A168A15F001F00A00300A168A15B521CB
:103A8C000A168A15F001F00A8312031360080A164D
:103A9C008A15B5210A168A15F001F00A00300A16AB
:103AAC008A15B5210A168A15F001F00A00300A169B
:103ABC008A15B5210A168A1583120313B20131082F
:103ACC00320203187C2DF001F00A3208103E8400FB
:103ADC00831700080A168A15B5210A168A150130B3
:103AEC00FA007A0883120313B207652D2E080A1602
:103AFC008A1510230800FB007B080319312E831252
:103B0C0003130611F001F00ABF300A168A15B5210D
:103B1C000A168A15F001F00A04300A168A15B52126
:103B2C000A168A158312031306150630FA00FA0BCF
:103B3C009D2D0000831203130611F001F00ABC3016
:103B4C000A168A15B5210A168A15F001F00A0130F9
:103B5C000A168A15B5210A168A158312031306153F
:103B6C000630FA00FA0BB82D00008312031306116D
:103B7C00F001F00ABF300A168A15B5210A168A150B
:103B8C00F001F00A03300A168A15B5210A168A15B7
:103B9C008312031306150630FA00FA0BD32D00001E
:103BAC00831203130611F001F00A9F300A168A15CE
:103BBC00B5210A168A15F001F00A01300A168A1589
:103BCC00B5210A168A158312031306150630FA005E
:103BDC00FA0BEE2D0000831203130611F001F00A0C
:103BEC0019300A168A15B5210A168A15F00100300B
:103BFC000A168A15B5210A168A15FA007A08FC00ED
:103C0C008312031306157C080319172E0A128A1146
:103C1C003C200A168A150630FA00FA0B132E000007
:103C2C00F12D0630FA00FA0B192E00008312031343
:103C3C000611F001F00A9F300A168A15B5210A16F2
:103C4C008A15F001F00A04300A168A15B521831280
:103C5C00031306150800831203130611F001F00A72
:103C6C00BB300A168A15B5210A168A15F001F00A1E
:103C7C0080300A168A15B5210A168A158312031389
:103C8C0006150630FA00FA0B492E00000A128A11AA
:103C9C003C200A168A150630FA00FA0B532E000047
:103CAC00831203130611F001F00A9B300A168A15D1
:103CBC00B5210A168A15F001F00A80300A168A1509
:103CCC00B521831203130615080000308312031369
:103CDC00BC000030BB000030BA000030B900EC1062
:103CEC0083160313D701D801DA3083120313AE0005
:103CFC002E08F000D9300A168A15BF200A168A152C
:103D0C00700883120313AF007108B000B101B20147
:103D1C002F08B907300803110318013E031DBA0719
:103D2C00310803110318013E031DBB0732080311B0
:103D3C000318013E031DBC07DC30AE002E08F0005A
:103D4C00DB300A168A15BF200A168A1570088312F2
:103D5C000313AF007108B000B101B2012F08B9070D
:103D6C00300803110318013E031DBA073108031173
:103D7C000318013E031DBB07320803110318013E53
:103D8C00031DBC07F001DD300A168A15BF200A1688
:103D9C008A15700883120313AE007108AF00B001CE
:103DAC00B1012E08B9072F0803110318013E031D9A
:103DBC00BA07300803110318013E031DBB07310875
:103DCC0003110318013E031DBC073C08031DFC2E08
:103DDC0001303B02031DFA2E00303A02031DFA2E6D
:103DEC0000303902031DFA2E031C3E2F3908AE0099
:103DFC003A08AF003B08B0003C08B100103003108B
:103E0C00B10CB00CAF0CAE0CFF3E031D052F2F08F0
:103E1C00B8002E08B7003708AE003808AF00B00164
:103E2C00B101FF303905B200FF303A05B300003064
:103E3C003B05B40000303C05B5003208AE07330832
:103E4C000318330F2A2F2B2FAF0734080318340F06
:103E5C00302F312FB00735080318350AB107310858
:103E6C00BC003008BB002F08BA002E08B900EB2E9E
:103E7C003A0883160313D8008312031339088316E8
:103E8C000313D700D709D8091D3083120313AE00D2
:103E9C002E0883160313C600480A031D5E2F01303B
:103EAC0083120313AE002E0883160313C707662F65
:103EBC00013083120313AE002E0883160313C807B8
:103ECC00CC01CC0A0A128A112D260A168A157808FA
:103EDC0083120313B8007708B7003708AE002E081A
:103EEC0083160313CE00831203133808AE002E087A
:103EFC0083160313CD00083083120313AE002E0873
:103F0C0083160313AC00AD010A168A15A7220A16F4
:103F1C008A150A168A156D210A168A150A168A152B
:103F2C007F230A168A15F001F00A00300A168A154A
:103F3C00B5210A168A15F001F00A00300A168A1506
:103F4C00B5210A168A158316031358088312031316
:103F5C00AE002E08B600F001F00A36080A168A15D3
:103F6C00B5210A168A1583160313570883120313F7
:103F7C00AE002E08B600F001F00A36080A168A15B3
:103F8C00B5210A168A15F001F00A83160313590895
:103F9C000A168A15B5210A168A15F001F00A83163D
:103FAC0003135A080A168A15B5210A168A15F00148
:103FBC00F00A831603135B080A168A15B5210A1634
:103FCC008A15F001F00A831603135C080A168A1589
:103FDC00B5210A168A15F001F00A831603135D0841
:103FEC000A168A15B5210A168A152B300A168A1557
:043FFC001023080086
:04400E00F4ECFFFFD0
:00000001FF
